:020000040800F2
:1000000000C0002035630008456100084761000812
:10001000496100084B6100084D61000800000000C4
:100020000000000000000000000000004F61000818
:10003000516100080000000053610008556100088C
:100040007D6300087D6300087D6300087D63000810
:100050007D6300087D6300087D6300087D63000800
:100060007D6300087D6300087D6300087D630008F0
:100070007D6300087D6300087D6300087D630008E0
:100080007D6300087D6300087D6300087D630008D0
:100090007D6300087D6300087D6300087D630008C0
:1000A0007D6300087D6300087D6300087D630008B0
:1000B0007D6300087D6300087D6300087D630008A0
:1000C0007D6300087D6300087D6300087D63000890
:1000D0007D6300085D6100087D6300087D630008A2
:1000E0007D6300087D6300087D6300087D63000870
:1000F0007D6300087D6300087D6300087D63000860
:100100007D6300087D6300087D6300087D6300084F
:100110007D6300087D6300087D6300087D6300083F
:100120007D6300087D6300087D6300087D6300082F
:1001300000000000000000000000000000000000BF
:1001400000000000000000000000000000000000AF
:10015000000000000000000000000000000000009F
:10016000000000000000000000000000000000008F
:10017000000000000000000000000000000000007F
:10018000000000000000000000000000000000006F
:10019000000000000000000000000000000000005F
:1001A000000000000000000000000000000000004F
:1001B000000000000000000000000000000000003F
:1001C000000000000000000000000000000000002F
:1001D000000000000000000000000000000000001F
:0401E0005FF8E0F1F3
:1001E80010B5054C237833B9044B13B10448AFF369
:1001F80000800123237010BDC0090020000000000A
:1002080088D6000808B5034B1BB103490348AFF370
:10021800008008BD00000000C409002088D600083E
:1002280081F0004102E000BF83F0004330B54FEA9F
:1002380041044FEA430594EA050F08BF90EA020F0C
:100248001FBF54EA000C55EA020C7FEA645C7FEA9F
:10025800655C00F0E2804FEA5454D4EB5555B8BFC2
:100268006D420CDD2C4480EA020281EA030382EA33
:10027800000083EA010180EA020281EA0303362DC5
:1002880088BF30BD11F0004F4FEA01314FF4801C98
:100298004CEA113102D0404261EB410113F0004FAA
:1002A8004FEA03334CEA133302D0524263EB430361
:1002B80094EA050F00F0A780A4F10104D5F1200EFF
:1002C8000DDB02FA0EFC22FA05F2801841F100015A
:1002D80003FA0EF2801843FA05F359410EE0A5F12E
:1002E80020050EF1200E012A03FA0EFC28BF4CF05F
:1002F800020C43FA05F3C01851EBE37101F0004515
:1003080007D54FF0000EDCF1000C7EEB00006EEB21
:100318000101B1F5801F1BD3B1F5001F0CD34908AB
:100328005FEA30004FEA3C0C04F101044FEA445202
:1003380012F5800F80F09A80BCF1004F08BF5FEA89
:10034800500C50F1000041EB045141EA050130BD69
:100358005FEA4C0C404141EB0101013C28BFB1F57B
:10036800801FE9D291F0000F04BF01460020B1FAC6
:1003780081F308BF2033A3F10B03B3F120020CDA99
:100388000C3208DD02F1140CC2F10C0201FA0CF077
:1003980021FA02F10CE002F11402D8BFC2F1200CDC
:1003A80001FA02F120FA0CFCDCBF41EA0C01904092
:1003B800E41AA2BF01EB0451294330BD6FEA0404DB
:1003C8001F3C1CDA0C340EDC04F11404C4F12002C6
:1003D80020FA04F001FA02F340EA030021FA04F3D8
:1003E80045EA030130BDC4F10C04C4F1200220FA2F
:1003F80002F001FA04F340EA0300294630BD21FA6D
:1004080004F0294630BD94F0000F83F4801306BF32
:1004180081F480110134013D4EE77FEA645C18BF26
:100428007FEA655C29D094EA050F08BF90EA020FBD
:1004380005D054EA000C04BF1946104630BD91EAB5
:10044800030F1EBF0021002030BD5FEA545C05D1B8
:100458004000494128BF41F0004130BD14F58004F7
:100468003CBF01F5801130BD01F0004545F0FE416B
:1004780041F470014FF0000030BD7FEA645C1ABFA0
:10048800194610467FEA655C1CBF0B46024650EAD7
:10049800013406BF52EA033591EA030F41F4002103
:1004A80030BD00BF90F0000F04BF0021704730B589
:1004B8004FF4806404F132044FF000054FF000015E
:1004C80050E700BF90F0000F04BF0021704730B51F
:1004D8004FF4806404F1320410F0004548BF4042F4
:1004E8004FF000013EE700BF42004FEAE2014FEA49
:1004F80031014FEA02701FBF12F07F4393F07F4F24
:1005080081F06051704732F07F4208BF704793F026
:100518007F4F04BF41F40021704730B54FF4607439
:1005280001F0004521F000411CE700BF50EA01023C
:1005380008BF704730B54FF000050AE050EA0102E5
:1005480008BF704730B511F0004502D5404261EB55
:1005580041014FF4806404F132045FEA915C3FF496
:10056800D8AE4FF003025FEADC0C18BF03325FEA33
:10057800DC0C18BF033202EBDC02C2F1200300FAE4
:1005880003FC20FA02F001FA03FE40EA0E0021FA09
:1005980002F11444BDE600BF4A0011D212F5001260
:1005A80011D20DD56FF47873B3EB62520ED44FEAC3
:1005B800C12343F0004343EA505323FA02F0704743
:1005C8004FF00000704750EA013002D14FF0FF3081
:1005D80070474FF000007047844641EA000313F06B
:1005E800030349D1403A23D30B6803604B68436047
:1005F8008B688360CB68C3600B6903614B69436197
:100608008B698361CB69C3610B6A03624B6A43627E
:100618008B6A8362CB6AC3620B6B03634B6B436366
:100628008B6B8363CB6BC36340304031403ADBD282
:1006380030320BD30B6803604B6843608B68836070
:10064800CB68C36010301031103AF3D20C3205D3A6
:1006580051F8043B40F8043B043AF9D2043208D07C
:10066800D2071CBF11F8013B00F8013B01D30B88EE
:1006780003806046704700BF082A13D38B07B1D0A8
:1006880010F00303AED0C3F10403D21ADB071CBF7A
:1006980011F8013B00F8013BA4D331F8023B20F8E4
:1006A800023B9FE7043AD9D3013A11F8013B00F81D
:1006B800013BF9D20B7803704B7843708B788370C9
:1006C8006046704770B54FF0FF0C4CF4E06C1CEAC4
:1006D80011541DBF1CEA135594EA0C0F95EA0C0F30
:1006E80000F0DEF82C4481EA030621EA4C5123EAA3
:1006F8004C5350EA013518BF52EA033541F48011D2
:1007080043F4801338D0A0FB02CE4FF00005E1FB84
:1007180002E506F00042E0FB03E54FF00006E1FBCE
:1007280003569CF0000F18BF4EF0010EA4F1FF0411
:10073800B6F5007F64F5407404D25FEA4E0E6D4151
:1007480046EB060642EAC62141EA55514FEAC52062
:1007580040EA5E504FEACE2EB4F1FD0C88BFBCF5DE
:10076800E06F1ED8BEF1004F08BF5FEA500E50F18F
:10077800000041EB045170BD06F0004646EA010155
:1007880040EA020081EA0301B4EB5C04C2BFD4EB87
:100798000C0541EA045170BD41F480114FF0000E80
:1007A800013C00F3AB8014F1360FDEBF002001F0EE
:1007B800004170BDC4F10004203C35DA0C341BDC68
:1007C80004F11404C4F1200500FA05F320FA04F03A
:1007D80001FA05F240EA020001F0004221F000416E
:1007E80010EBD37021FA04F642EB06015EEA430EE1
:1007F80008BF20EAD37070BDC4F10C04C4F1200511
:1008080000FA04F320FA05F001FA04F240EA0200C3
:1008180001F0004110EBD37041F100015EEA430E94
:1008280008BF20EAD37070BDC4F1200500FA05F2B4
:100838004EEA020E20FA04F301FA05F243EA020333
:1008480021FA04F001F0004121FA04F220EA020042
:1008580000EBD3705EEA430E08BF20EAD37070BD88
:1008680094F0000F0FD101F00046400041EB010168
:1008780011F4801F08BF013CF7D041EA060195F04A
:10088800000F18BF704703F00046520043EB030304
:1008980013F4801F08BF013DF7D043EA06037047F1
:1008A80094EA0C0F0CEA135518BF95EA0C0F0CD0FC
:1008B80050EA410618BF52EA4306D1D181EA030142
:1008C80001F000414FF0000070BD50EA410606BF3C
:1008D8001046194652EA430619D094EA0C0F02D181
:1008E80050EA013613D195EA0C0F05D152EA0336C6
:1008F8001CBF104619460AD181EA030101F00041E4
:1009080041F0FE4141F470014FF0000070BD41F02C
:10091800FE4141F4780170BD70B54FF0FF0C4CF406
:10092800E06C1CEA11541DBF1CEA135594EA0C0F25
:1009380095EA0C0F00F0A7F8A4EB050481EA030E72
:1009480052EA03354FEA013100F088804FEA033359
:100958004FF0805545EA131343EA12634FEA022227
:1009680045EA111545EA10654FEA00260EF00041E8
:100978009D4208BF964244F1FD0404F5407402D23A
:100988005B084FEA3202B61A65EB03055B084FEACB
:1009980032024FF480104FF4002CB6EB020E75EBC8
:1009A800030E22BFB61A754640EA0C005B084FEAF0
:1009B8003202B6EB020E75EB030E22BFB61A75466D
:1009C80040EA5C005B084FEA3202B6EB020E75EBB8
:1009D800030E22BFB61A754640EA9C005B084FEA30
:1009E8003202B6EB020E75EB030E22BFB61A75463D
:1009F80040EADC0055EA060E18D04FEA051545EA2C
:100A080016754FEA06164FEAC30343EA52734FEAD4
:100A1800C2025FEA1C1CC0D111F4801F0BD141EA4D
:100A280000014FF000004FF0004CB6E711F4801FB2
:100A380004BF01430020B4F1FD0C88BFBCF5E06F92
:100A48003FF6AFAEB5EB030C04BFB6EB020C5FEAA2
:100A5800500C50F1000041EB045170BD0EF0004EF7
:100A68004EEA113114EB5C04C2BFD4EB0C0541EA29
:100A7800045170BD41F480114FF0000E013C90E626
:100A880045EA060E8DE60CEA135594EA0C0F08BFEA
:100A980095EA0C0F3FF43BAF94EA0C0F0AD150EAE9
:100AA80001347FF434AF95EA0C0F7FF425AF10467C
:100AB80019462CE795EA0C0F06D152EA03353FF4A4
:100AC800FDAE1046194622E750EA410618BF52EA21
:100AD80043067FF4C5AE50EA41047FF40DAF52EAF5
:100AE80043057FF4EBAE12E74FF0FF3C06E000BF92
:100AF8004FF0010C02E000BF4FF0010C4DF804CD9F
:100B08004FEA410C7FEA6C5C4FEA430C18BF7FEA5E
:100B18006C5C1BD001B050EA410C0CBF52EA430C8C
:100B280091EA030F02BF90EA020F0020704710F10C
:100B3800000F91EA030F58BF994208BF90422CBF9B
:100B4800D8176FEAE37040F0010070474FEA410C94
:100B58007FEA6C5C02D150EA013C07D14FEA430CB2
:100B68007FEA6C5CD6D152EA033CD3D05DF8040B23
:100B7800704700BF8446104662468C461946634655
:100B880000E000BF01B5FFF7B7FF002848BF10F12C
:100B9800000F01BD4DF808EDFFF7F4FF0CBF012071
:100BA80000205DF808FB00BF4DF808EDFFF7EAFFED
:100BB80034BF012000205DF808FB00BF4DF808EDA8
:100BC800FFF7E0FF94BF012000205DF808FB00BF9D
:100BD8004DF808EDFFF7CEFF94BF012000205DF827
:100BE80008FB00BF4DF808EDFFF7C4FF34BF012034
:100BF80000205DF808FB00BF4FEA410C7FEA6C5CFF
:100C080002D150EA013C0AD14FEA430C7FEA6C5CFE
:100C180002D152EA033C02D14FF0000070474FF076
:100C2800010070474FEA410212F5001215D211D5A2
:100C38006FF47873B3EB625212D94FEAC12343F0D1
:100C4800004343EA505311F0004F23FA02F018BF53
:100C5800404270474FF00000704750EA013005D11C
:100C680011F0004008BF6FF0004070474FF00000DF
:100C7800704700BF53B94AB9002908BF00281CBFF4
:100C88004FF0FF314FF0FF3000F06EB9ADF1080CB6
:100C98006DE904CE00F006F8DDF804E0DDE9022392
:100CA80004B070472DE9F047089E0D4604468E466D
:100CB800002B40F083808A42174647D9B2FA82F364
:100CC8004BB1C3F1200105FA03FE20FA01F19F4060
:100CD80041EA0E0E9C404FEA1748BEFBF8FC1FFA8B
:100CE80087F908FB1CE20CFB09F0210C41EA0242DF
:100CF80090420AD9BA180CF1FF3180F0188190425D
:100D080040F21581ACF1020C3A44121AB2FBF8F029
:100D180008FB102200FB09F1A4B244EA0244A142F4
:100D280009D93C1900F1FF3280F00381A14240F259
:100D3800008102383C44641A002140EA0C401EB18C
:100D48000022DC40C6E90042BDE8F08702B9FFDEB8
:100D5800B2FA82F3002B4FD18D1A01214FEA124EBD
:100D68001FFA82F8B5FBFEFC0EFB1C5508FB0CF0C5
:100D7800220C42EA0545A84207D97D190CF1FF3239
:100D880002D2A84200F2E98094462D1AB5FBFEF083
:100D98000EFB105508FB00F8A4B244EA0544A04530
:100DA80007D93C1900F1FF3202D2A04500F2D980E0
:100DB8001046A4EB080440EA0C40C0E78B4208D96F
:100DC800002E00F0B1800021C6E900050846BDE804
:100DD800F087B3FA83F100294BD1AB4202D38242A8
:100DE80000F2B980841A65EB030301209E46002EA9
:100DF800AAD0C6E9004EA7E79F40C3F12002D14020
:100E08004FEA174EB1FBFEF01FFA87F80EFB1011E0
:100E180024FA02F29D4000FB08FC2A43150C45EA1F
:100E28000145AC4504FA03F409D97D1900F1FF31F5
:100E380080F08F80AC4540F28C8002383D44A5EBB1
:100E48000C05B5FBFEF10EFB115C01FB08F995B230
:100E580045EA0C45A94507D97D1901F1FF3274D23D
:100E6800A94572D902393D44A5EB090541EA00417B
:100E780078E7C1F120078B4022FA07FC4CEA030C03
:100E880025FA07F44FEA1C4EB4FBFEF91FFA8CF85A
:100E98000EFB194420FA07F309FB08FA8D401D439D
:100EA8002B0C43EA0444A24502FA01F200FA01F3CA
:100EB80009D91CEB040409F1FF3048D2A24546D9F0
:100EC800A9F102096444A4EB0A04B4FBFEF00EFB8A
:100ED800104400FB08FAADB245EA0444A24508D91B
:100EE8001CEB040400F1FF352DD2A2452BD90238A2
:100EF800644440EA0940A0FB0289A4EB0A044C457B
:100F0800C6464D4619D316D05EB1B3EB0E0264EB5C
:100F1800050404FA07F722FA01F31F43CC40C6E997
:100F280000740021BDE8F087314630460CE78C4656
:100F3800EBE61046FFE64345E6D2B8EB020E69EB56
:100F48000C050138E0E72846D3E711468CE78146CF
:100F5800B9E7084673E7084649E7ACF1020C3D4497
:100F680013E702383C4424E7704700BF10B5094C2A
:100F78002268136823F04003136000232361636130
:100F8800204606F045F82268136843F040031360D2
:100F980010BD00BFF40900202DE9F04186B0274BB1
:100FA8009A6942F004029A619A6902F00402009276
:100FB800009A9A6942F010029A619B6903F0100343
:100FC8000193019B1C23029301240394049403239B
:100FD80005931B4D02A9284605F046FB10270297EA
:100FE80002A9184805F040FB4FF00208CDF8088028
:100FF8000026039602A9284605F036FB22464146FC
:10100800284605F054FC22460421284605F04FFCEA
:1010180022460821284605F04AFC22463946284639
:1010280005F045FC05F040F8FFF7A0FF064B1E60F1
:1010380003F580331C6006B0BDE8F0810010024063
:1010480000080140001001409001214270B50D4692
:10105800064E0023336005F011F80446284605F0D3
:101068000DF801233360204670BD00BF9001224275
:1010780010B5054C0023236005F000F8FF2004F0AC
:10108800FDFF0123236010BD90012242F8B50E46F2
:1010980015460024094B1C6004F0F0FF0746AC42DB
:1010A80006D2FF2004F0EAFF30550134E4B2F6E737
:1010B800024B01221A603846F8BD00BF9001224257
:1010C800F8B50C4616460025094B1D6004F0D6FFFE
:1010D8000746B54206D214F8010B04F0CFFF0135DC
:1010E800EDB2F6E7024B01221A603846F8BD00BFA0
:1010F8009001224200B583B0134B93E8030000909F
:101108008DF80410102004F09FFF05226946302056
:10111800FFF7D6FF052269461020FFF7B7FF002327
:10112800042B08D802AA1A4412F8082CA52A02D1BE
:101138000133DBB2F4E7052B03D1002003B05DF8DF
:1011480004FB0120FAE700BFA0D6000838B5044622
:10115800102004F079FF134D00232B602022214634
:10116800A020FFF7ADFF01232B600F4B1B68002B5E
:10117800FBD10720FFF77CFF044601462720FFF735
:1011880065FF14F0100F04D114F0200F07D1FF20D1
:1011980038BDFF21E120FFF759FF1020F8E7202094
:1011A800F6E700BF900121420401214238B5054607
:1011B800102004F049FF0720FFF75AFF04460146B4
:1011C8002720FFF743FF14F0400F01D1012038BD5D
:1011D800202229466120FFF759FFFF21E220FFF76F
:1011E80035FF0020F3E7000010B5114C0023236001
:1011F800052210492A20FFF763FF01212120FFF76C
:1012080025FF01212220FFF721FF28212520FFF7B4
:101218001DFF20213120FFF719FF0F212620FFF79E
:1012280015FF0F212020FFF711FF0123236010BDB8
:1012380090012142A8D6000810B5144C0023236061
:10124800052213493020FFF73BFF052211492A20C8
:10125800FFF736FF01212120FFF7F8FE01212220A8
:10126800FFF7F4FE1A212420FFF7F0FE282125209D
:10127800FFF7ECFE0F212620FFF7E8FE0E212020C5
:10128800FFF7E4FE0123236010BD00BF9001214257
:10129800B0D60008A8D6000810B50446042005F00A
:1012A8001FF9014B1C6010BDDC09002030B40C4B49
:1012B8005D680C4A146800FB04F49B68002104E094
:1012C800E81A02441144A14208D21A46044B9B680A
:1012D8009A42FBD0F4D9D21A1144F4E730BC7047D3
:1012E80010E000E0DC09002038B505460024A542DE
:1012F80005D94FF47A70FFF7D9FF0134F7E738BD05
:1013080030B587B0184B9A6942F004029A619A691D
:1013180002F004020092009A9A6942F010029A615F
:101328009B6903F010030193019B0124029400239D
:10133800039302230493032305930C4D02A9284623
:1013480005F092F94FF400430293049402A9284649
:1013580005F08AF920230293049402A9044805F0B1
:1013680083F907B030BD00BF0010024000080140FB
:101378000010014008B501281AD0294B1B780BB37F
:101388002021284805F08CFA28B14FF4004126485E
:1013980005F086FA80B90A20FFF7A6FF204B002245
:1013A8001A7020211F4805F07BFA98B9012010E037
:1013B8001B4B01221A70E0E701211B4805F070FA67
:1013C8000128E8D02021174805F06AFA01280FD033
:1013D800002008BD4FF40041134805F061FAC8B178
:1013E8000121114805F05CFA012815D00020F0E72A
:1013F8004FF400410C4805F053FA012801D00020B1
:10140800E7E70121084805F04BFA38B9044B0122F7
:101418001A70DEE70220DCE70320DAE70020D8E7CD
:10142800000000200010014000080140064B4FF466
:1014380080725A614FF400725A610449C860802171
:10144800596119611A61704700100140000C014090
:10145800064B4FF480721A614FF400725A610449C6
:10146800C8608021596119611A61704700100140F4
:10147800000C014008B5164B4FF088321A605A60CC
:101488000022DA6003F580634FF480721A614FF42A
:1014980000725A6140225A610E4B9A8848F68913A5
:1014A8009A4210D00A4B98680B4A402111614FF4B8
:1014B800007111614FF033321A605A604FF6FF72B3
:1014C800DA6080B208BD0220FFF7F0FEEAE700BF4D
:1014D800000C0140E40900200010014010B50C4642
:1014E800FFF7A4FF064B4FF480721A614FF40072A5
:1014F8005A610449CC608021596119611A6110BD93
:1015080000100140000C014008B5FFF78FFFFFF7FE
:10151800B1FF08BD08B5024B1889FFF787FF08BD62
:10152800E40900202DE9F84F05460E469C4B9B88A0
:1015380049F24132934220D045F2103293421CD0F6
:1015480046F60402934259D041F66312934200F0E2
:10155800A08045F21052934200F02881904B9B796D
:10156800012B00F06F818E4C29466089FFF7B6FF8A
:101578003146A089FFF7B2FF3EE0DFF824B2BBF89E
:101588000A00FFF753FF874C4FF4807AC4F810A085
:101598004FF4007767612B0ADFF80C92C9F80C301A
:1015A8004FF08008C4F81480C4F810802761C4F88C
:1015B80010A06761EDB2C9F80C50C4F81480C4F8E3
:1015C80010802761BBF80C00FFF730FFC4F810A0AB
:1015D8006761330AC9F80C30C4F81480C4F8108065
:1015E8002761C4F810A06761F6B2C9F80C60C4F8A6
:1015F8001480C4F810802761BDE8F88F684B9B7988
:10160800012B3FD0DFF898B1BBF80A00FFF70EFFB7
:10161800644C4FF4807AC4F810A04FF400776761E7
:101628002B0ADFF88491C9F80C304FF08008C4F811
:101638001480C4F810802761C4F810A06761EDB267
:10164800C9F80C50C4F81480C4F810802761BBF89E
:101658000C00FFF7EBFEC4F810A06761330AC9F865
:101668000C30C4F81480C4F810802761C4F810A0A6
:101678006761F6B2C9F80C60C4F81480C4F8108029
:101688002761B9E7464B1B881D1AADB2013DADB2C3
:10169800B8E7434B9B79002B54D1414B1C88241A43
:1016A800A4B2013CA4B25889FFF7C0FE3D4B4FF4E9
:1016B80080751D614FF400725A613B480027C7606E
:1016C8008021596119611A611D615A61C7605961A8
:1016D80019611A611D615A61270AC7605961196148
:1016E8001A611D615A61E4B2C460596119611A61D5
:1016F8002B4FB889FFF79AFE2A4B4FF480751D616E
:101708004FF400725A61310A274CE1608020586119
:1017180018611A611D615A61F6B2E6605861186174
:101728001A611D615A61798801390E12E6605861A3
:1017380018611A611D615A61C9B2E1605861186186
:101748001A6159E7DFF85880B8F80A00FFF76EFE0B
:10175800144B4FF480771F614FF400725A61290AC5
:10176800114CE1608021596119611A611F615A6148
:10177800EDB2E560596119611A611F615A61B8F8E3
:10178800000001380512E560596119611A611F618D
:101798005A61C0B2E060596119611A61A8E700BFD7
:1017A800E409002000100140000C0140DFF8A8B057
:1017B800BBF80A00FFF73AFE264C4FF4807AC4F8CB
:1017C80010A04FF4007767612B0ADFF89090C9F8F2
:1017D8000C304FF08008C4F81480C4F810802761DA
:1017E800BBF80A00013080B2FFF720FEC4F810A051
:1017F8006761EDB2C9F80C50C4F81480C4F81080C1
:101808002761BBF80C00FFF711FEC4F810A0676150
:10181800330AC9F80C30C4F81480C4F81080276162
:10182800BBF80C00013080B2FFF700FEC4F810A02E
:101838006761F6B2C9F80C60C4F81480C4F8108067
:101848002761D9E6044B1B881D1AADB2013DADB224
:1018580089E600BF00100140E4090020000C0140A7
:101868002DE9F047814B9B79012B29D02BB97F4B70
:101878009A8841F663139A422CD07C4B9B8849F294
:10188800413293423ED046F6040293423AD045F2A2
:101898001032934236D045F21052934232D041F67C
:1018A800631293422ED0072800F26281DFE810F01D
:1018B80073016201690160016B016D016F017101C2
:1018C8006A4A928846F604018A42CFD041F66311EB
:1018D8008A42CBD00728D0D8DFE800F012040608E7
:1018E8000A0C0E100720C8E70420C6E70520C4E745
:1018F8000120C2E70020C0E70320BEE70220BCE7C2
:101908000620BAE70138062805D8DFE800F09D066A
:10191800939597999B00002400E0402445F21052CB
:10192800934200F09380362045F21032934209D05A
:1019380045F21052934205D041F66312934201D00A
:1019480044F0080446F60402934200F082802146DF
:10195800FFF7C4FD454B9B8841F6631293420AD0BA
:1019680014F0200F78D0414A11885288914202D24F
:101978003E480280418045F2105293427CD0DFF805
:10198800EC90B9F80A00FFF751FD394C4FF4807814
:10199800C4F810804FF400756561364F4FF0000AA7
:1019A800C7F80CA08026666126612561C4F81080FE
:1019B8006561C7F80CA0666126612561C4F81080CE
:1019C8006561B9F80030013B1A12FA606661266158
:1019D8002561C4F810806561DBB2FB606661266131
:1019E8002561B9F80C00FFF721FDC4F81080656186
:1019F800C7F80CA0666126612561C4F8108065618E
:101A0800C7F80CA0666126612561C4F8108065617D
:101A1800B9F80230013B1A12FA6066612661256145
:101A2800C4F810806561DBB2FB60666126612561E0
:101A3800BDE8F087C02471E720246FE760246DE7D4
:101A4800A0246BE7E02469E7802467E74FF4585047
:101A58006AE744F002047AE7044A118852889142FE
:101A680089D902480280418085E700BFE409002047
:101A780000100140000C0140484F7889FFF7D6FC60
:101A8800474C4FF48079C4F810904FF400756561A5
:101A9800DFF810814FF0000AC8F80CA080266661B4
:101AA800266125617889013080B2FFF7BFFCC4F850
:101AB80010906561C8F80CA0666126612561788977
:101AC800023080B2FFF7B2FCC4F8109065613B8821
:101AD800013B1B12C8F80C306661266125617889C4
:101AE800033080B2FFF7A2FCC4F8109065613B8810
:101AF800013BDBB2C8F80C30666126612561B88904
:101B0800FFF794FCC4F810906561C8F80CA06661F2
:101B180026612561B889013080B2FFF787FCC4F8D7
:101B280010906561C8F80CA0666126612561B889C6
:101B3800023080B2FFF77AFCC4F8109065617B88A8
:101B4800013B1B12C8F80C30666126612561B88913
:101B5800033080B2FFF76AFCC4F8109065617B8897
:101B6800013BDBB2C8F80C306661266125615FE78E
:101B7800002100E0102141F480510320FFF7AEFC62
:101B880056E72021F7E73821F5E72821F3E7182160
:101B9800F1E70821EFE73021EDE700BFE409002075
:101BA80000100140000C01402DE9F04F83B00546BC
:101BB8000E460192C64B9B8849F24132934220D08F
:101BC80045F2103293421CD045F21052934270D025
:101BD80041F66312934200F0B88046F6040293423D
:101BE80000F02481BA4B9B79012B00F06A81B84C34
:101BF80029466089FFF772FC3146A089FFF76EFC21
:101C08003EE0DFF8CCB2BBF80A00FFF70FFCB14C9E
:101C18004FF4807AC4F810A04FF4007767612B0A5C
:101C2800DFF8B492C9F80C304FF08008C4F814807B
:101C3800C4F810802761C4F810A06761EDB2C9F834
:101C48000C50C4F81480C4F810802761BBF80C004D
:101C5800FFF7ECFBC4F810A06761330AC9F80C3031
:101C6800C4F81480C4F810802761C4F810A0676114
:101C7800F6B2C9F80C60C4F81480C4F81080276163
:101C8800944B4FF480745C614FF400725A61904930
:101C980009899148C1608021596119611A611C61E3
:101CA8005A61019CC460596119611A6103B0BDE8A9
:101CB800F08FDFF81CA2BAF80A00FFF7B7FB854CD3
:101CC8004FF48079C4F810904FF4007767612B0ABD
:101CD800DFF804B2CBF80C304FF08008C4F8148059
:101CE800C4F810802761BAF80A00013080B2FFF703
:101CF8009DFBC4F810906761EDB2CBF80C50C4F8A6
:101D08001480C4F810802761BAF80C00FFF78EFB26
:101D1800C4F810906761330ACBF80C30C4F814800B
:101D2800C4F810802761BAF80C00013080B2FFF7C0
:101D38007DFBC4F810906761F6B2CBF80C60C4F86C
:101D48001480C4F8108027619AE7614B9B792BB9FE
:101D58005F4B1888451BADB2013DADB2DFF870B1DD
:101D6800BBF80A00FFF762FB5A4C4FF4807AC4F8BC
:101D780010A04FF4007767612B0ADFF85C91C9F86F
:101D88000C304FF08008C4F81480C4F81080276124
:101D9800C4F810A06761EDB2C9F80C50C4F81480FB
:101DA800C4F810802761C4F810A06761C9F80C3026
:101DB800C4F81480C4F810802761C4F810A06761C3
:101DC800C9F80C50C4F81480C4F810802761BBF817
:101DD8000C00FFF72BFBC4F810A06761330AC9F8A1
:101DE8000C30C4F81480C4F810802761C4F810A01F
:101DF8006761F6B2C9F80C60C4F81480C4F81080A2
:101E08002761C4F810A06761C9F80C30C4F81480C1
:101E1800C4F810802761C4F810A06761C9F80C6085
:101E2800C4F81480C4F81080276129E7284B9B79EF
:101E3800012B3FD0DFF898B0BBF80A00FFF7F6FA9D
:101E4800244C4FF4807AC4F810A04FF400776761EF
:101E58002B0ADFF88490C9F80C304FF08008C4F8DA
:101E68001480C4F810802761C4F810A06761EDB22F
:101E7800C9F80C50C4F81480C4F810802761BBF866
:101E88000C00FFF7D3FAC4F810A06761330AC9F849
:101E98000C30C4F81480C4F810802761C4F810A06E
:101EA8006761F6B2C9F80C60C4F81480C4F81080F1
:101EB8002761E5E6064B1B881D1AADB2013DADB2A0
:101EC800B8E7034B1B881D1AADB2013DADB28EE6D3
:101ED800E409002000100140000C0140000000004F
:101EE8002DE9F8438146BE20FFF7A0FA224C4FF4B3
:101EF8008078C4F810804FF4007565611F4F052382
:101F0800FB608026666126612561C4F810806561E2
:101F18004846FEF7D7FA16A3D3E90023FEF7D2FB0B
:101F2800FEF73AFBF860666126612561C4F8108007
:101F380065610123FB60666126612561C4F8108034
:101F48006561FF23FB60666126612561C4F8108026
:101F580065610023FB60666126612561C4F8108015
:101F68006561FB60666126612561BDE8F88300BF95
:101F7800666666666666044000100140000C014013
:101F880008B500285AD1604B00229A71F0221A80B5
:101F98004FF4A0725A809B8849F24132934217D07D
:101FA80046F60402934213D045F2103293420FD002
:101FB80045F21052934222D041F6631293422FD039
:101FC800514B22221A8120225A8121229A8170E0C3
:101FD8004D4A2C2111812A2151812B21918146F6CC
:101FE8000402934203D045F21032934261D1464B2A
:101FF8004FF4A0721A804FF4F0725A8059E0424BA5
:102008004FF430521A814FF428525A814FF42C520F
:102018009A814FF4F0721A804FF448725A8048E05F
:10202800394B2C221A812B225A812A229A814FF469
:10203800F0721A804FF448725A803AE0324B01220B
:102048009A714FF4A0721A80F0225A809B8849F244
:102058004132934217D045F21032934213D046F6DC
:102068000402934229D045F2105293422DD041F6F2
:10207800631293423AD0244A2221118121215181AD
:102088002021918106E0204A2C2111812A215181A9
:102098002B21918146F60402934203D045F2103277
:1020A800934206D1184B4FF4F0721A804FF4A07285
:1020B8005A800020FFF7D4FB08BD134A2C21118158
:1020C8002B2151812A219181E4E70F4A4FF43051A5
:1020D80011814FF4285151814FF42C5191814FF4C3
:1020E800487111804FF4F0715180D3E7064A2C21D2
:1020F80011812A2151812B2191814FF4487111803E
:102108004FF4F0715180C5E7E40900202DE9F04152
:1021180006461D4B1D885A8805FB02F59A8846F627
:1021280004039A4203D1184B9B79012B07D0002155
:102138000846FFF7F7F9FFF7EDF900221FE0124C08
:102148000020A0712A2767814FF02B08A4F80C8083
:102158000146FFF7E7F90123A371A4F80A80A781D4
:10216800E9E70A4B4FF4807119614FF40071596126
:10217800074CE66080245C611C6119610132AA4247
:10218800EFD3BDE8F08100BFE40900200010014052
:10219800000C01402DE9F04F87B0BD4B9A6942F021
:1021A80008029A619A6902F008020092009A9A69F4
:1021B80042F010029A619B6903F010030193019B9E
:1021C8004FF4F863029301240394049403230593C2
:1021D80002A9B04804F048FA4FF6FF73029302A927
:1021E800AD4804F041FAAD4A536823F0E06343F088
:1021F800806353603220FFF777F821460020FFF70D
:102208006DF93220FFF770F80020FFF77DF9A44B35
:102218009880A0F1FF039BB2B3F57F4F80F0F9815E
:10222800B0F5134F00F0F5819D4CA1889D4805F04D
:10223800BBFAA38849F24132934200F06F8246F616
:102248000402934200F0908345F21032934200F06A
:10225800348445F21052934201F0A88349F22532A2
:10226800934202F0218349F22832934202F0F38329
:1022780049F22032934202F0E28449F23132934229
:1022880002F08A8545F20842934202F0688641F2DC
:102298000552934202F006874BF20552934203F02F
:1022A80015804CF20552934203F0138148F68912C7
:1022B800934203F0DE8144F23152934203F0958257
:1022C80044F23552934203F04B8341F66312934232
:1022D80040F03883E220FFF7A9F86E4C4FF480787D
:1022E800C4F810804FF4007565616B4F1D23FB60C7
:1022F8008026666126612561C4F810806561022325
:10230800FB60666126612561C4F81080656104235D
:10231800FB606661266125616420FEF7C7FFE02047
:10232800FFF784F8C4F8108065614FF0010AC7F818
:102338000CA06661266125610A20FEF7D5FFE02022
:10234800FFF774F8C4F8108065614FF0030BC7F805
:102358000CB06661266125610C20FEF7C5FF50466A
:10236800FFF764F80A20FEF7BFFFE620FFF75EF8E4
:10237800C4F8108065612F23FB60666126612561C2
:10238800C4F810806561FF23FB60666126612561E2
:10239800C4F810806561FB60666126612561B02024
:1023A800FFF744F8C4F8108065612023FB6066617C
:1023B80026612561C4F8108065614FF00009C7F8EF
:1023C8000C90666126612561C4F810806561C7F8C4
:1023D8000CB0666126612561C4F81080656140F221
:1023E8001F33FB60666126612561C4F81080656152
:1023F800C7F80CA0666126612561C4F81080656184
:1024080040F2DF13FB60666126612561C4F8108025
:102418006561C7F80C90666126612561B420FFF7F5
:1024280005F8C4F8108065610423FB6066612661C5
:102438002561C4F81080656140F21F43FB60666146
:1024480026612561C4F810806561C7F80C90666143
:1024580026612561C4F8108065612E23FB606661E2
:1024680026612561C4F810806561C7F80C90666123
:1024780026612561C4F810806561C7F80C90666113
:1024880026612561C4F810806561C7F80C900BE0DF
:102498000010024000100140000C01400000014003
:1024A800E4090020B8D60008666126612561C4F8F1
:1024B80010806561C7F80C90666126612561B620B9
:1024C800FEF7B4FFC4F8108065610223FB60666103
:1024D80026612561C4F8108065614FF40373FB60C1
:1024E800666126612561C4F810806561C7F80C90A3
:1024F800666126612561C4F8108065611723FB6059
:10250800666126612561C4F8108065611523FB604A
:10251800666126612561C4F810806561C7F80C9072
:10252800666126612561C4F810806561C7F80C9062
:10253800666126612561F020FEF778FFC4F81080F7
:102548006561C7F80CB06661266125612920FEF730
:102558006DFFD020FEF76AFFC4F810806561C7F8E8
:102568000C90666126612561BE20FEF75FFFC4F806
:10257800108065610523FB60666126612561C4F8EA
:1025880010806561FE23FB60666126612561C4F8E1
:1025980010806561C7F80CA0666126612561C4F8E2
:1025A80010806561C7F80C90666126612561C4F8E2
:1025B80010806561C7F80C90666126612561C4F8D2
:1025C80010806561C7F80C90666126612561B820A6
:1025D800FEF72CFFC4F810806561C7F80CB066617F
:1025E80026612561C4F810806561C7F80CA0666192
:1025F80026612561BA20FEF719FFC4F810806561CD
:10260800C7F80CA06661266125616420FFF768FCA5
:1026180098E1D320FEF70AFFFEF72CFFFEF72AFF0A
:10262800FEF728FFCE4C0002A080FEF723FFA38808
:10263800184380B2A08049F2413398423FF4F4AD88
:10264800BF20FEF7F3FEFEF715FFFEF713FFFEF7B8
:1026580011FFFEF70FFF0002A080FEF70BFFA38813
:10266800184380B2A08046F6040398423FF4DCADDC
:10267800D420FEF7DBFEFEF7FDFEFEF7FBFEFEF7BD
:10268800F9FE0002A080FEF7F5FEA388184380B289
:10269800A08045F2103398423FF4C6AD4FF45A403B
:1026A800FEF7C4FEFEF7E6FE4FF45B40FEF7BEFE03
:1026B800FEF7E0FE0002A0804FF45C40FEF7B6FE95
:1026C800FEF7D8FEA388184380B2A080B0F5004F6B
:1026D80020D0A34B9A8845F210539A423FF4A4ADF8
:1026E800A120FEF7A3FEFEF7C5FE9D4CA080FEF7D5
:1026F800C1FE0002A080FEF7BDFEA38803439BB283
:10270800A38045F2617293427FF48EAD41F6631265
:10271800A28089E545F21052A280DAE7CF20FEF7C1
:1027280085FE0020FEF794FEC120FEF791FE3020C2
:10273800FEF78EFEED20FEF779FE6420FEF788FE98
:102748000320FEF785FE1220FEF782FE8120FEF7A9
:102758007FFEE820FEF76AFE8520FEF779FE10204E
:10276800FEF776FE7A20FEF773FECB20FEF75EFEBC
:102778003920FEF76DFE2C20FEF76AFE0020FEF7DA
:1027880067FE3420FEF764FE0220FEF761FEF720A4
:10279800FEF74CFE2020FEF75BFEEA20FEF746FE21
:1027A8000020FEF755FE0020FEF752FEC020FEF77F
:1027B8003DFE1B20FEF74CFEC120FEF737FE012030
:1027C800FEF746FEC520FEF731FE3020FEF740FE3C
:1027D8003020FEF73DFEC720FEF728FEB720FEF7A3
:1027E80037FE3620FEF722FE4820FEF731FE3A205B
:1027F800FEF71CFE5520FEF72BFEB120FEF716FE55
:102808000020FEF725FE1A20FEF722FEB620FEF76E
:102818000DFE0A20FEF71CFEA220FEF719FEF2208C
:10282800FEF704FE0020FEF713FE2620FEF7FEFD4D
:102838000120FEF70DFEE020FEF7F8FD0F20FEF761
:1028480007FE2A20FEF704FE2820FEF701FE0820D6
:10285800FEF7FEFD0E20FEF7FBFD0820FEF7F8FD53
:102868005420FEF7F5FDA920FEF7F2FD4320FEF700
:10287800EFFD0A20FEF7ECFD0F20FEF7E9FD002032
:10288800FEF7E6FD0020FEF7E3FD0020FEF7E0FD81
:102898000020FEF7DDFDE120FEF7C8FD0020FEF771
:1028A800D7FD1520FEF7D4FD1720FEF7D1FD072030
:1028B800FEF7CEFD1120FEF7CBFD0620FEF7C8FD82
:1028C8002B20FEF7C5FD5620FEF7C2FD3C20FEF783
:1028D800BFFD0520FEF7BCFD1020FEF7B9FD0F2057
:1028E800FEF7B6FD3F20FEF7B3FD3F20FEF7B0FD33
:1028F8000F20FEF7ADFD2B20FEF798FD0020FEF718
:10290800A7FD0020FEF7A4FD0120FEF7A1FD3F2052
:10291800FEF79EFD2A20FEF789FD0020FEF798FDB0
:102928000020FEF795FD0020FEF792FDEF20FEF750
:102938008FFD1120FEF77AFD7820FEF7D5FC2920BF
:10294800FEF774FD0020FFF71BFB064B01221A60FF
:102958004FF6FF70FFF7DAFB07B0BDE8F08F00BF56
:10296800E4090020A80122421120FEF75FFD14208F
:10297800FEF7BAFCD020FEF759FD0720FEF768FDE8
:102988004220FEF765FD1D20FEF762FDD120FEF70F
:102998004DFD0020FEF75CFD1A20FEF759FD0920C9
:1029A800FEF756FDD220FEF741FD0120FEF750FD4F
:1029B8002220FEF74DFDC020FEF738FD1020FEF75F
:1029C80047FD3B20FEF744FD0020FEF741FD0220B5
:1029D800FEF73EFD1120FEF73BFDC520FEF726FD64
:1029E8000320FEF735FDC820FEF720FD0020FEF786
:1029F8002FFD2520FEF72CFD2120FEF729FD0520BF
:102A0800FEF726FD0020FEF723FD0A20FEF720FD35
:102A18006520FEF71DFD2520FEF71AFD7720FEF73D
:102A280017FD5020FEF714FD0F20FEF711FD0020C2
:102A3800FEF70EFDF820FEF7F9FC0120FEF708FD71
:102A4800FE20FEF7F3FC0020FEF702FD0220FEF751
:102A5800FFFC2020FEF7EAFC3620FEF7E7FC082002
:102A6800FEF7F6FC3A20FEF7E1FC5520FEF7F0FCF5
:102A78002B20FEF7DBFC0020FEF7EAFC0020FEF727
:102A8800E7FC0120FEF7E4FC3F20FEF7E1FC2A20EA
:102A9800FEF7CCFC0020FEF7DBFC0020FEF7D8FC9C
:102AA8000120FEF7D5FCDF20FEF7D2FC7820FEF7E8
:102AB8001BFC2920FEF7BAFC44E7ED20FEF7B6FC24
:102AC8000120FEF7C5FCFE20FEF7C2FCEE20FEF753
:102AD800ADFCDE20FEF7BCFC2120FEF7B9FCF1209E
:102AE800FEF7A4FC0120FEF7B3FCDF20FEF79EFCF6
:102AF8001020FEF7ADFCC420FEF798FC8F20FEF7EF
:102B0800A7FCC620FEF792FC0020FEF7A1FCE220FD
:102B1800FEF79EFCE220FEF79BFCE220FEF798FC05
:102B2800BF20FEF783FCAA20FEF792FCB020FEF738
:102B38007DFC0D20FEF78CFC0020FEF789FC0D20A3
:102B4800FEF786FC0020FEF783FC1120FEF780FCD0
:102B58000020FEF77DFC1920FEF77AFC0020FEF726
:102B680077FC2120FEF774FC0020FEF771FC2D2075
:102B7800FEF76EFC0020FEF76BFC3D20FEF768FCBC
:102B88000020FEF765FC5D20FEF762FC0020FEF7E2
:102B98005FFC5D20FEF75CFC0020FEF759FCB120CD
:102BA800FEF744FC8020FEF753FC0020FEF750FCA3
:102BB8008B20FEF74DFC0020FEF74AFC9620FEF71E
:102BC80047FC0020FEF744FCB220FEF72FFC002053
:102BD800FEF73EFC0020FEF73BFC0220FEF738FC27
:102BE8000020FEF735FC0320FEF732FC0020FEF73C
:102BF8002FFCB320FEF71AFC0020FEF729FC00206A
:102C0800FEF726FC0020FEF723FC0020FEF720FC40
:102C18000020FEF71DFC0020FEF71AFC0020FEF73E
:102C280017FC0020FEF714FC0020FEF711FC002022
:102C3800FEF70EFC0020FEF70BFC0020FEF708FC58
:102C48000020FEF705FC0020FEF702FC0020FEF73E
:102C5800FFFB0020FEF7FCFB0020FEF7F9FB00203D
:102C6800FEF7F6FB0020FEF7F3FB0020FEF7F0FB73
:102C78000020FEF7EDFB0020FEF7EAFB0020FEF740
:102C8800E7FB0020FEF7E4FBB420FEF7CFFB8B2028
:102C9800FEF7DEFB0020FEF7DBFB9620FEF7D8FBF5
:102CA8000020FEF7D5FBA120FEF7D2FB0020FEF79F
:102CB800CFFBB520FEF7BAFB0220FEF7C9FB0020C8
:102CC800FEF7C6FB0320FEF7C3FB0020FEF7C0FBA0
:102CD8000420FEF7BDFB0020FEF7BAFBB620FEF786
:102CE800A5FB0020FEF7B4FB0020FEF7B1FBB720E0
:102CF800FEF79CFB0020FEF7ABFB0020FEF7A8FBCD
:102D08003F20FEF7A5FB0020FEF7A2FB5E20FEF7A2
:102D18009FFB0020FEF79CFB6420FEF799FB002038
:102D2800FEF796FB8C20FEF793FB0020FEF790FB46
:102D3800AC20FEF78DFB0020FEF78AFBDC20FEF7B7
:102D480087FB0020FEF784FB7020FEF781FB002044
:102D5800FEF77EFB9020FEF77BFB0020FEF778FB5A
:102D6800EB20FEF775FB0020FEF772FBDC20FEF778
:102D78006FFB0020FEF76CFBB820FEF757FB002026
:102D8800FEF766FB0020FEF763FB0020FEF760FB02
:102D98000020FEF75DFB0020FEF75AFB0020FEF73F
:102DA80057FB0020FEF754FB0020FEF751FBBA202A
:102DB800FEF73CFB2420FEF74BFB0020FEF748FB08
:102DC8000020FEF745FB0020FEF742FBC120FEF77E
:102DD8002DFB2020FEF73CFB0020FEF739FB54209A
:102DE800FEF736FB0020FEF733FBFF20FEF730FB33
:102DF8000020FEF72DFBC220FEF718FB0A20FEF785
:102E080027FB0020FEF724FB0420FEF721FB00200F
:102E1800FEF71EFBC320FEF709FB3C20FEF718FB5C
:102E28000020FEF715FB3A20FEF712FB0020FEF704
:102E38000FFB3920FEF70CFB0020FEF709FB3720BB
:102E4800FEF706FB0020FEF703FB3C20FEF700FB25
:102E58000020FEF7FDFA3620FEF7FAFA0020FEF70A
:102E6800F7FA3220FEF7F4FA0020FEF7F1FA2F20E5
:102E7800FEF7EEFA0020FEF7EBFA2C20FEF7E8FA50
:102E88000020FEF7E5FA2920FEF7E2FA0020FEF717
:102E9800DFFA2620FEF7DCFA0020FEF7D9FA242014
:102EA800FEF7D6FA0020FEF7D3FA2420FEF7D0FA70
:102EB8000020FEF7CDFA2320FEF7CAFA0020FEF71D
:102EC800C7FA3C20FEF7C4FA0020FEF7C1FA362004
:102ED800FEF7BEFA0020FEF7BBFA3220FEF7B8FA7A
:102EE8000020FEF7B5FA2F20FEF7B2FA0020FEF711
:102EF800AFFA2C20FEF7ACFA0020FEF7A9FA292039
:102F0800FEF7A6FA0020FEF7A3FA2620FEF7A0FA9D
:102F18000020FEF79DFA2420FEF79AFA0020FEF71B
:102F280097FA2420FEF794FA0020FEF791FA23205E
:102F3800FEF78EFA0020FEF78BFAC420FEF776FA29
:102F48006220FEF785FA0020FEF782FA0520FEF7D8
:102F58007FFA0020FEF77CFA8420FEF779FA002039
:102F6800FEF776FAF020FEF773FA0020FEF770FA03
:102F78001820FEF76DFA0020FEF76AFAA420FEF783
:102F880067FA0020FEF764FA1820FEF761FA0020BD
:102F9800FEF75EFA5020FEF75BFA0020FEF758FABB
:102FA8000C20FEF755FA0020FEF752FA1720FEF71C
:102FB8004FFA0020FEF74CFA9520FEF749FA002058
:102FC800FEF746FAF320FEF743FA0020FEF740FA30
:102FD800E620FEF73DFA0020FEF73AFAC520FEF794
:102FE80025FA3220FEF734FA0020FEF731FA4420A1
:102FF800FEF72EFA0020FEF72BFA6520FEF728FAD6
:103008000020FEF725FA7620FEF722FA0020FEF7C8
:103018001FFA8820FEF71CFA0020FEF719FAC620CE
:10302800FEF704FA2020FEF713FA0020FEF710FA44
:103038001720FEF70DFA0020FEF70AFA0120FEF726
:1030480007FA0020FEF704FAC720FEF7EFF9002080
:10305800FEF7FEF90020FEF7FBF90020FEF7F8F96D
:103068000020FEF7F5F9C820FEF7E0F90020FEF78A
:10307800EFF90020FEF7ECF90020FEF7E9F900204F
:10308800FEF7E6F9C920FEF7D1F90020FEF7E0F9CE
:103098000020FEF7DDF90020FEF7DAF90020FEF740
:1030A800D7F90020FEF7D4F90020FEF7D1F9002067
:1030B800FEF7CEF90020FEF7CBF90020FEF7C8F99D
:1030C8000020FEF7C5F90020FEF7C2F90020FEF740
:1030D800BFF90020FEF7BCF90020FEF7B9F900207F
:1030E800FEF7B6F90020FEF7B3F9E020FEF79EF9E7
:1030F8001620FEF7ADF90020FEF7AAF91C20FEF70E
:10310800A7F90020FEF7A4F92120FEF7A1F9002075
:10311800FEF79EF93620FEF79BF90020FEF798F996
:103128004620FEF795F90020FEF792F95220FEF7A7
:103138008FF90020FEF78CF96420FEF789F900204A
:10314800FEF786F97A20FEF783F90020FEF780F96A
:103158008B20FEF77DF90020FEF77AF99920FEF71B
:1031680077F90020FEF774F9A820FEF771F900201E
:10317800FEF76EF9B920FEF76BF90020FEF768F943
:10318800C420FEF765F90020FEF762F9CA20FEF7B1
:103198005FF90020FEF75CF9D220FEF759F900200C
:1031A800FEF756F9D920FEF753F90020FEF750F93B
:1031B800E020FEF74DF90020FEF74AF9F320FEF76C
:1031C80047F90020FEF744F9E120FEF72FF9162011
:1031D800FEF73EF90020FEF73BF91C20FEF738F910
:1031E8000020FEF735F92220FEF732F90020FEF71D
:1031F8002FF93620FEF72CF90020FEF729F9452093
:10320800FEF726F90020FEF723F95220FEF720F9F1
:103218000020FEF71DF96420FEF71AF90020FEF7DA
:1032280017F97A20FEF714F90020FEF711F98B2020
:10323800FEF70EF90020FEF70BF99920FEF708F9C2
:103248000020FEF705F9A820FEF702F90020FEF796
:10325800FFF8B920FEF7FCF80020FEF7F9F8C420C3
:10326800FEF7F6F80020FEF7F3F8CA20FEF7F0F8AC
:103278000020FEF7EDF8D220FEF7EAF80020FEF76E
:10328800E7F8D820FEF7E4F80020FEF7E1F8E020A0
:10329800FEF7DEF80020FEF7DBF8F320FEF7D8F89B
:1032A8000020FEF7D5F8E220FEF7C0F80520FEF76B
:1032B800CFF80020FEF7CCF80B20FEF7C9F8002065
:1032C800FEF7C6F81B20FEF7C3F80020FEF7C0F88B
:1032D8003420FEF7BDF80020FEF7BAF84420FEF7C8
:1032E800B7F80020FEF7B4F84F20FEF7B1F8002039
:1032F800FEF7AEF86120FEF7ABF80020FEF7A8F85D
:103308007920FEF7A5F80020FEF7A2F88820FEF73E
:103318009FF80020FEF79CF89720FEF799F8002008
:10332800FEF796F8A620FEF793F80020FEF790F82F
:10333800B720FEF78DF80020FEF78AF8C220FEF7C6
:1033480087F80020FEF784F8C720FEF781F80020F0
:10335800FEF77EF8D120FEF77BF80020FEF778F81C
:10336800D620FEF775F80020FEF772F8DD20FEF78C
:103378006FF80020FEF76CF8F320FEF769F80020DC
:10338800FEF766F8E320FEF751F80520FEF760F82F
:103398000020FEF75DF80A20FEF75AF80020FEF735
:1033A80057F81C20FEF754F80020FEF751F8332098
:1033B800FEF74EF80020FEF74BF84420FEF748F8D9
:1033C8000020FEF745F85020FEF742F80020FEF7EF
:1033D8003FF86220FEF73CF80020FEF739F8782025
:1033E800FEF736F80020FEF733F88820FEF730F8AD
:1033F8000020FEF72DF89720FEF72AF80020FEF7A8
:1034080027F8A620FEF724F80020FEF721F8B720B9
:10341800FEF71EF80020FEF71BF8C220FEF718F88A
:103428000020FEF715F8C720FEF712F80020FEF777
:103438000FF8D120FEF70CF80020FEF709F8D52088
:10344800FEF706F80020FEF703F8DD20FEF700F887
:103458000020FDF7FDFFF320FDF7FAFF0020FDF740
:10346800F7FFE420FDF7E2FF0120FDF7F1FF002060
:10347800FDF7EEFF0120FDF7EBFF0020FDF7E8FF69
:103488000220FDF7E5FF0020FDF7E2FF2A20FDF707
:10349800DFFF0020FDF7DCFF3C20FDF7D9FF00200F
:1034A800FDF7D6FF4B20FDF7D3FF0020FDF7D0FF37
:1034B8005D20FDF7CDFF0020FDF7CAFF7420FDF762
:1034C800C7FF0020FDF7C4FF8420FDF7C1FF0020DF
:1034D800FDF7BEFF9320FDF7BBFF0020FDF7B8FF07
:1034E800A220FDF7B5FF0020FDF7B2FFB320FDF7DE
:1034F800AFFF0020FDF7ACFFBE20FDF7A9FF0020BD
:10350800FDF7A6FFC420FDF7A3FF0020FDF7A0FFED
:10351800CD20FDF79DFF0020FDF79AFFD320FDF792
:1035280097FF0020FDF794FFDD20FDF791FF0020B5
:10353800FDF78EFFF320FDF78BFF0020FDF788FFD6
:10354800E520FDF773FF0020FDF782FF0020FDF75F
:103558007FFF0020FDF77CFF0020FDF779FF0220A8
:10356800FDF776FF0020FDF773FF2920FDF770FFB8
:103578000020FDF76DFF3C20FDF76AFF0020FDF7F6
:1035880067FF4B20FDF764FF0020FDF761FF5D201A
:10359800FDF75EFF0020FDF75BFF7420FDF758FF85
:1035A8000020FDF755FF8420FDF752FF0020FDF7AE
:1035B8004FFF9320FDF74CFF0020FDF749FFA220A5
:1035C800FDF746FF0020FDF743FFB320FDF740FF5E
:1035D8000020FDF73DFFBE20FDF73AFF0020FDF774
:1035E80037FFC420FDF734FF0020FDF731FFCD2061
:1035F800FDF72EFF0020FDF72BFFD320FDF728FF56
:103608000020FDF725FFDC20FDF722FF0020FDF755
:103618001FFFF320FDF71CFF0020FDF719FFE62030
:10362800FDF704FF1120FDF713FF0020FDF710FF41
:103638003420FDF70DFF0020FDF70AFF5620FDF7A7
:1036480007FF0020FDF704FF7620FDF701FF0020AB
:10365800FDF7FEFE7720FDF7FBFE0020FDF7F8FEE4
:103668006620FDF7F5FE0020FDF7F2FE8820FDF745
:10367800EFFE0020FDF7ECFE9920FDF7E9FE0020A3
:10368800FDF7E6FEBB20FDF7E3FE0020FDF7E0FEB8
:103698009920FDF7DDFE0020FDF7DAFE6620FDF734
:1036A800D7FE0020FDF7D4FE5520FDF7D1FE0020FF
:1036B800FDF7CEFE5520FDF7CBFE0020FDF7C8FE36
:1036C8004520FDF7C5FE0020FDF7C2FE4320FDF7AB
:1036D800BFFE0020FDF7BCFE4420FDF7B9FE002028
:1036E800FDF7B6FEE720FDF7A1FE3220FDF7B0FE9C
:1036F8000020FDF7ADFE5520FDF7AAFE0020FDF7DE
:10370800A7FE7620FDF7A4FE0020FDF7A1FE6620A7
:10371800FDF79EFE0020FDF79BFE6720FDF798FE53
:103728000020FDF795FE6720FDF792FE0020FDF7CB
:103738008FFE8720FDF78CFE0020FDF789FE99207B
:10374800FDF786FE0020FDF783FEBB20FDF780FE17
:103758000020FDF77DFE9920FDF77AFE0020FDF799
:1037680077FE7720FDF774FE0020FDF771FE4420F8
:10377800FDF76EFE0020FDF76BFE5620FDF768FE94
:103788000020FDF765FE2320FDF762FE0020FDF70F
:103798005FFE3320FDF75CFE0020FDF759FE452053
:1037A800FDF756FE0020FDF753FEE820FDF73EFE2C
:1037B8000020FDF74DFE0020FDF74AFE9920FDF799
:1037C80047FE0020FDF744FE8720FDF741FE00205C
:1037D800FDF73EFE8820FDF73BFE0020FDF738FE92
:1037E8007720FDF735FE0020FDF732FE6620FDF755
:1037F8002FFE0020FDF72CFE8820FDF729FE002073
:10380800FDF726FEAA20FDF723FE0020FDF720FE87
:10381800BB20FDF71DFE0020FDF71AFE9920FDF7DD
:1038280017FE0020FDF714FE6620FDF711FE0020AC
:10383800FDF70EFE5520FDF70BFE0020FDF708FEF4
:103848005520FDF705FE0020FDF702FE4420FDF798
:10385800FFFD0020FDF7FCFD4420FDF7F9FD0020E9
:10386800FDF7F6FD5520FDF7F3FD0020FDF7F0FD0F
:10387800E920FDF7DBFDAA20FDF7EAFD0020FDF7B2
:10388800E7FD0020FDF7E4FD0020FDF7E1FD002045
:10389800FDF7CCFDAA20FDF7DBFDCF20FDF7C6FD27
:1038A8000020FDF7D5FD0020FDF7D2FD0020FDF733
:1038B800CFFD0020FDF7CCFD0020FDF7C9FD00205D
:1038C800FDF7C6FD0020FDF7C3FD0020FDF7C0FD94
:1038D8000020FDF7BDFD0020FDF7BAFD0020FDF733
:1038E800B7FD0020FDF7B4FD0020FDF7B1FD002075
:1038F800FDF7AEFD0020FDF7ABFD0020FDF7A8FDAC
:103908000020FDF7A5FDF020FDF790FD0020FDF754
:103918009FFD5020FDF79CFD0020FDF799FD00203C
:10392800FDF796FD0020FDF793FDF320FDF77EFDE2
:103938000020FDF78DFDF920FDF778FD0620FDF745
:1039480087FD1020FDF784FD2920FDF781FD00206B
:10395800FDF77EFD3A20FDF769FD5520FDF778FD5E
:103968001120FDF763FD6420FDF7BEFC2920FDF75B
:103978005DFD3520FDF75AFD0020FDF769FD51205A
:10398800FDF754FDFF20FDF763FD5320FDF74EFDC5
:103998002C20FDF75DFD5520FDF748FD8220FDF741
:1039A80057FD2C20FDF742FDFEF7CCBF55214FF403
:1039B8007040FDF793FDAA214FF20100FDF78EFD3F
:1039C80052214FF20200FDF789FD08214FF2030052
:1039D800FDF784FD01214FF20400FDF77FFD0D2165
:1039E8004FF43040FDF77AFD0D214BF20100FDF751
:1039F80075FD0D214BF20200FDF770FD34214FF4E7
:103A08003640FDF76BFD34214BF20160FDF766FD92
:103A180034214BF20260FDF761FD0D214FF4314076
:103A2800FDF75CFD0D214BF20110FDF757FD0D214F
:103A38004BF20210FDF752FD34214FF43740FDF7E9
:103A48004DFD34214BF20170FDF748FD34214BF256
:103A58000270FDF743FD00214FF43240FDF73EFDB3
:103A680000214BF20120FDF739FD00214BF2022025
:103A7800FDF734FD24214FF43840FDF72FFD2421B4
:103A88004BF60100FDF72AFD24214BF60200FDF755
:103A980025FD01214FF43F40FDF720FD0F214FF494
:103AA8003340FDF71BFD0F214BF20130FDF716FDEA
:103AB8000F214BF20230FDF711FD34214FF439404C
:103AC800FDF70CFD34214BF60110FDF707FD3421FD
:103AD8004BF60210FDF702FD08214FF43540FDF7C3
:103AE800FDFC08214BF20150FDF7F8FC08214BF2D0
:103AF8000250FDF7F3FC03214FF44240FDF7EEFCC2
:103B080024214FF43A40FDF7E9FC24214BF601202B
:103B1800FDF7E4FC24214BF60220FDF7DFFC002131
:103B28004FF43C40FDF7DAFC78214BF60140FDF7F5
:103B3800D5FC00214BF60240FDF7D0FC00214FF4E4
:103B48003D40FDF7CBFC78214BF60150FDF7C6FC54
:103B580000214BF60250FDF7C1FC00214FF43E4016
:103B6800FDF7BCFC64214BF60160FDF7B7FC0021B2
:103B78004FF45140FDF7B2FC33214DF20110FDF72F
:103B8800ADFC00214DF20210FDF7A8FC34214DF2E6
:103B98000310FDF7A3FC00214DF20410FDF79EFC75
:103BA8003A214DF20510FDF799FC00214DF206105F
:103BB800FDF794FC4A214DF20710FDF78FFC002118
:103BC8004DF20810FDF78AFC5C214DF20910FDF753
:103BD80085FC00214DF20A10FDF780FC81214DF291
:103BE8000B10FDF77BFC00214DF20C10FDF776FC65
:103BF800A6214DF20D10FDF771FC00214DF20E10BB
:103C0800FDF76CFCE5214DF20F10FDF767FC012173
:103C18004DF21010FDF762FC13214DF21110FDF763
:103C28005DFC01214DF21210FDF758FC54214DF2B4
:103C38001310FDF753FC01214DF21410FDF74EFC53
:103C480082214DF21510FDF749FC01214DF21610A5
:103C5800FDF744FCCA214DF21710FDF73FFC022185
:103C68004DF21810FDF73AFC00214DF21910FDF73E
:103C780035FC02214DF21A10FDF730FC01214DF2FE
:103C88001B10FDF72BFC02214DF21C10FDF726FC42
:103C980034214DF21D10FDF721FC02214DF21E10BA
:103CA800FDF71CFC67214DF21F10FDF717FC0221E0
:103CB8004DF22010FDF712FC84214DF22110FDF782
:103CC8000DFC02214DF22210FDF708FCA4214DF253
:103CD8002310FDF703FC02214DF22410FDF7FEFB33
:103CE800B7214DF22510FDF7F9FB02214DF2261000
:103CF800FDF7F4FBCF214DF22710FDF7EFFB022172
:103D08004DF22810FDF7EAFBDE214DF22910FDF7F0
:103D1800E5FB02214DF22A10FDF7E0FBF2214DF2FE
:103D28002B10FDF7DBFB02214DF22C10FDF7D6FB23
:103D3800FE214DF22D10FDF7D1FB03214DF22E107F
:103D4800FDF7CCFB10214DF22F10FDF7C7FB032127
:103D58004DF23010FDF7C2FB33214DF23110FDF763
:103D6800BDFB03214DF23210FDF7B8FB6D214DF27A
:103D78003310FDF7B3FB00214FF45240FDF7AEFBC3
:103D880033214DF20120FDF7A9FB00214DF202205D
:103D9800FDF7A4FB34214DF20320FDF79FFB002122
:103DA8004DF20420FDF79AFB3A214DF20520FDF76C
:103DB80095FB00214DF20620FDF790FB4A214DF2BC
:103DC8000720FDF78BFB00214DF20820FDF786FB4D
:103DD8005C214DF20920FDF781FB00214DF20A20FC
:103DE800FDF77CFB81214DF20B20FDF777FB0021CD
:103DF8004DF20C20FDF772FBA6214DF20D20FDF7C8
:103E08006DFB00214DF20E20FDF768FBE5214DF218
:103E18000F20FDF763FB01214DF21020FDF75EFB3B
:103E280013214DF21120FDF759FB01214DF212200B
:103E3800FDF754FB54214DF21320FDF74FFB0121F0
:103E48004DF21420FDF74AFB82214DF21520FDF7B3
:103E580045FB01214DF21620FDF740FBCA214DF22A
:103E68001720FDF73BFB02214DF21820FDF736FB2A
:103E780000214DF21920FDF731FB02214DF21A20E5
:103E8800FDF72CFB01214DF21B20FDF727FB02213A
:103E98004DF21C20FDF722FB34214DF21D20FDF7C9
:103EA8001DFB02214DF21E20FDF718FB67214DF284
:103EB8001F20FDF713FB02214DF22020FDF70EFB1A
:103EC80084214DF22120FDF709FB02214DF2222029
:103ED800FDF704FBA4214DF22320FDF7FFFA022190
:103EE8004DF22420FDF7FAFAB7214DF22520FDF70F
:103EF800F5FA02214DF22620FDF7F0FACF214DF216
:103F08002720FDF7EBFA02214DF22820FDF7E6FA0B
:103F1800DE214DF22920FDF7E1FA02214DF22A2097
:103F2800FDF7DCFAF2214DF22B20FDF7D7FA02213A
:103F38004DF22C20FDF7D2FAFE214DF22D20FDF78F
:103F4800CDFA03214DF22E20FDF7C8FA10214DF2CB
:103F58002F20FDF7C3FA03214DF23020FDF7BEFAFA
:103F680033214DF23120FDF7B9FA03214DF2322009
:103F7800FDF7B4FA6D214DF23320FDF7AFFA0021B9
:103F88004FF45340FDF7AAFA33214DF20130FDF703
:103F9800A5FA00214DF20230FDF7A0FA34214DF2C6
:103FA8000330FDF79BFA00214DF20430FDF796FA35
:103FB8003A214DF20530FDF791FA00214DF2063015
:103FC800FDF78CFA4A214DF20730FDF787FA0021F8
:103FD8004DF20830FDF782FA5C214DF20930FDF709
:103FE8007DFA00214DF20A30FDF778FA81214DF271
:103FF8000B30FDF773FA00214DF20C30FDF76EFA25
:10400800A6214DF20D30FDF769FA00214DF20E3070
:10401800FDF764FAE5214DF20F30FDF75FFA012153
:104028004DF21030FDF75AFA13214DF21130FDF719
:1040380055FA01214DF21230FDF750FA54214DF294
:104048001330FDF74BFA01214DF21430FDF746FA13
:1040580082214DF21530FDF741FA01214DF216305B
:10406800FDF73CFACA214DF21730FDF737FA022165
:104078004DF21830FDF732FA00214DF21930FDF7F4
:104088002DFA02214DF21A30FDF728FA01214DF2DE
:104098001B30FDF723FA02214DF21C30FDF71EFA02
:1040A80034214DF21D30FDF719FA02214DF21E3070
:1040B800FDF714FA67214DF21F30FDF70FFA0221C0
:1040C8004DF22030FDF70AFA84214DF22130FDF738
:1040D80005FA02214DF22230FDF700FAA4214DF233
:1040E8002330FDF7FBF902214DF22430FDF7F6F9F4
:1040F800B7214DF22530FDF7F1F902214DF22630B6
:10410800FDF7ECF9CF214DF22730FDF7E7F9022151
:104118004DF22830FDF7E2F9DE214DF22930FDF7A6
:10412800DDF902214DF22A30FDF7D8F9F2214DF2DE
:104138002B30FDF7D3F902214DF22C30FDF7CEF9E3
:10414800FE214DF22D30FDF7C9F903214DF22E3035
:10415800FDF7C4F910214DF22F30FDF7BFF9032107
:104168004DF23030FDF7BAF933214DF23130FDF719
:10417800B5F903214DF23230FDF7B0F96D214DF25A
:104188003330FDF7ABF900214FF45440FDF7A6F9A1
:1041980033214DF20140FDF7A1F900214DF2024013
:1041A800FDF79CF934214DF20340FDF797F9002102
:1041B8004DF20440FDF792F93A214DF20540FDF722
:1041C8008DF900214DF20640FDF788F94A214DF29C
:1041D8000740FDF783F900214DF20840FDF77EF90D
:1041E8005C214DF20940FDF779F900214DF20A40B2
:1041F800FDF774F981214DF20B40FDF76FF90021AD
:104208004DF20C40FDF76AF9A6214DF20D40FDF77D
:1042180065F900214DF20E40FDF760F9E5214DF2F8
:104228000F40FDF75BF901214DF21040FDF756F9FB
:1042380013214DF21140FDF751F901214DF21240C1
:10424800FDF74CF954214DF21340FDF747F90121D0
:104258004DF21440FDF742F982214DF21540FDF769
:104268003DF901214DF21640FDF738F9CA214DF20A
:104278001740FDF733F902214DF21840FDF72EF9EA
:1042880000214DF21940FDF729F902214DF21A409B
:10429800FDF724F901214DF21B40FDF71FF902211A
:1042A8004DF21C40FDF71AF934214DF21D40FDF77F
:1042B80015F902214DF21E40FDF710F967214DF264
:1042C8001F40FDF70BF902214DF22040FDF706F9DA
:1042D80084214DF22140FDF701F902214DF22240DF
:1042E800FDF7FCF8A4214DF22340FDF7F7F8022171
:1042F8004DF22440FDF7F2F8B7214DF22540FDF7C5
:10430800EDF802214DF22640FDF7E8F8CF214DF2F5
:104318002740FDF7E3F802214DF22840FDF7DEF8CB
:10432800DE214DF22940FDF7D9F802214DF22A404D
:10433800FDF7D4F8F2214DF22B40FDF7CFF802211A
:104348004DF22C40FDF7CAF8FE214DF22D40FDF745
:10435800C5F803214DF22E40FDF7C0F810214DF2AB
:104368002F40FDF7BBF803214DF23040FDF7B6F8BA
:1043780033214DF23140FDF7B1F803214DF23240BF
:10438800FDF7ACF86D214DF23340FDF7A7F8002199
:104398004FF45540FDF7A2F833214DF20150FDF7D7
:1043A8009DF800214DF20250FDF798F834214DF2A6
:1043B8000350FDF793F800214DF20450FDF78EF8F5
:1043C8003A214DF20550FDF789F800214DF20650CB
:1043D800FDF784F84A214DF20750FDF77FF80021D8
:1043E8004DF20850FDF77AF85C214DF20950FDF7BF
:1043F80075F800214DF20A50FDF770F881214DF251
:104408000B50FDF76BF800214DF20C50FDF766F8E4
:10441800A6214DF20D50FDF761F800214DF20E5026
:10442800FDF75CF8E5214DF20F50FDF757F8012133
:104438004DF21050FDF752F813214DF21150FDF7CF
:104448004DF801214DF21250FDF748F854214DF274
:104458001350FDF743F801214DF21450FDF73EF8D3
:1044680082214DF21550FDF739F801214DF2165011
:10447800FDF734F8CA214DF21750FDF72FF8022145
:104488004DF21850FDF72AF800214DF21950FDF7AA
:1044980025F802214DF21A50FDF720F801214DF2BE
:1044A8001B50FDF71BF802214DF21C50FDF716F8C2
:1044B80034214DF21D50FDF711F802214DF21E5026
:1044C800FDF70CF867214DF21F50FDF707F80221A0
:1044D8004DF22050FDF702F884214DF22150FCF7EF
:1044E800FDFF02214DF22250FCF7F8FFA4214DF206
:1044F8002350FCF7F3FF02214DF22450FCF7EEFFA6
:10450800B7214DF22550FCF7E9FF02214DF2265064
:10451800FCF7E4FFCF214DF22750FCF7DFFF022123
:104528004DF22850FCF7DAFFDE214DF22950FCF756
:10453800D5FF02214DF22A50FCF7D0FFF2214DF2AF
:104548002B50FCF7CBFF02214DF22C50FCF7C6FF95
:10455800FE214DF22D50FCF7C1FF03214DF22E50E4
:10456800FCF7BCFF10214DF22F50FCF7B7FF0321D9
:104578004DF23050FCF7B2FF33214DF23150FCF7C9
:10458800ADFF03214DF23250FCF7A8FF6D214DF22B
:104598003350FCF7A3FF00214FF45640FCF79EFF71
:1045A80033214DF20160FCF799FF00214DF20260C2
:1045B800FCF794FF34214DF20360FCF78FFF0021D4
:1045C8004DF20460FCF78AFF3A214DF20560FCF7D2
:1045D80085FF00214DF20660FCF780FF4A214DF26D
:1045E8000760FCF77BFF00214DF20860FCF776FFBF
:1045F8005C214DF20960FCF771FF00214DF20A6061
:10460800FCF76CFF81214DF20B60FCF767FF00217E
:104618004DF20C60FCF762FFA6214DF20D60FCF72D
:104628005DFF00214DF20E60FCF758FFE5214DF2C9
:104638000F60FCF753FF01214DF21060FCF74EFFAD
:1046480013214DF21160FCF749FF01214DF2126070
:10465800FCF744FF54214DF21360FCF73FFF0121A2
:104668004DF21460FCF73AFF82214DF21560FCF719
:1046780035FF01214DF21660FCF730FFCA214DF2DB
:104688001760FCF72BFF02214DF21860FCF726FF9C
:1046980000214DF21960FCF721FF02214DF21A604A
:1046A800FCF71CFF01214DF21B60FCF717FF0221EC
:1046B8004DF21C60FCF712FF34214DF21D60FCF72F
:1046C8000DFF02214DF21E60FCF708FF67214DF235
:1046D8001F60FCF703FF02214DF22060FCF7FEFE8D
:1046E80084214DF22160FCF7F9FE02214DF222608F
:1046F800FCF7F4FEA4214DF22360FCF7EFFE022143
:104708004DF22460FCF7EAFEB7214DF22560FCF774
:10471800E5FE02214DF22660FCF7E0FECF214DF2C6
:104728002760FCF7DBFE02214DF22860FCF7D6FE7D
:10473800DE214DF22960FCF7D1FE02214DF22A60FC
:10474800FCF7CCFEF2214DF22B60FCF7C7FE0221EC
:104758004DF22C60FCF7C2FEFE214DF22D60FCF7F5
:10476800BDFE03214DF22E60FCF7B8FE10214DF27C
:104778002F60FCF7B3FE03214DF23060FCF7AEFE6C
:1047880033214DF23160FCF7A9FE03214DF232606E
:10479800FCF7A4FE6D214DF23360FCF79FFE552116
:1047A8004FF47040FCF79AFEAA214FF20100FCF783
:1047B80095FE52214FF20200FCF790FE08214FF2BD
:1047C8000300FCF78BFE00214FF20400FCF786FE85
:1047D800CC214FF43140FCF781FE00214BF201104F
:1047E800FCF77CFE05214FF43640FCF777FE70217C
:1047F8004FF43740FCF772FE70214BF20170FCF762
:104808006DFE01214FF43840FCF768FE03214BF69A
:104818000100FCF763FE03214BF60200FCF75EFE85
:1048280003214BF60300FCF759FE02214FF43C40EC
:10483800FCF754FE00214BF60140FCF74FFE002127
:104848004BF60240FCF74AFED0214FF44940FCF7F2
:1048580045FE02214CF60110FCF740FE50214CF6B3
:104868000210FCF73BFE50214CF60310FCF736FE15
:1048780050214CF60410FCF731FE00214FF454503F
:10488800FCF72CFE55214FF46850FCF727FE4FF437
:104898008850FCF7CBFD7820FCF708FD4FF4245036
:1048A800FCF7C4FDFEF74EB847F6F001E520FCF72B
:1048B80015FE4FF480710120FCF710FE4FF4E06103
:1048C8000220FCF70BFE41F230010320FCF706FE44
:1048D80000210420FCF702FE40F202210820FCF728
:1048E800FDFD00210920FCF7F9FD00210A20FCF755
:1048F800F5FD00210C20FCF7F1FD00210D20FCF74F
:10490800EDFD00210F20FCF7E9FD00211020FCF748
:10491800E5FD07211120FCF7E1FD00211220FCF73D
:10492800DDFD00211320FCF7D9FD00210720FCF74D
:10493800D5FD41F290611020FCF7D0FD40F227210F
:104948001120FCF7CBFD9D211220FCF7C7FD4FF489
:10495800C8511320FCF7C2FD25212920FCF7BEFD14
:104968000D212B20FCF7BAFD07213020FCF7B6FDFE
:1049780040F203313120FCF7B1FD03213220FCF76E
:10498800ADFD40F206213520FCF7A8FD08213620B0
:10499800FCF7A4FD40F206413720FCF79FFD4FF4D9
:1049A80041713820FCF79AFD07213920FCF796FD64
:1049B80040F202613C20FCF791FD08213D20FCF704
:1049C8008DFD00215020FCF789FDEF215120FCF7D7
:1049D80085FD00215220FCF781FD40F23F11532054
:1049E800FCF77CFD4FF427416020FCF777FD01219F
:1049F8006120FCF773FD00216A20FCF76FFD0021A0
:104A08008020FCF76BFD00218120FCF767FD002169
:104A18008220FCF763FD00218320FCF75FFD002165
:104A28008420FCF75BFD00218520FCF757FD102151
:104A38009020FCF753FD4FF4C0619220FCF74EFD27
:104A480040F233110720FCF749FD22210020FCF732
:104A580045FDFDF777BF41F28F01EC20FCF73EFDE5
:104A680041F23421EF20FCF739FD4FF48071012029
:104A7800FCF734FD4FF4E0610220FCF72FFD41F212
:104A880030010320FCF72AFD00210420FCF726FD55
:104A980040F202210820FCF721FD00210920FCF743
:104AA8001DFD00210A20FCF719FD01210C20FCF74F
:104AB80015FD00210D20FCF711FD00210F20FCF74A
:104AC8000DFD00211020FCF709FD07211120FCF73E
:104AD80005FD00211220FCF701FD00211320FCF741
:104AE800FDFC01210720FCF7F9FC3220FCF7FCFB58
:104AF80041F290411020FCF7F1FC40F227211120EF
:104B0800FCF7ECFC3220FCF7EFFB8A211220FCF7C3
:104B1800E5FC3220FCF7E8FB4FF4D0511320FCF7FA
:104B2800DDFC06212920FCF7D9FC0D212B20FCF700
:104B3800D5FC3220FCF7D8FB00212020FCF7CEFC66
:104B480000212120FCF7CAFC3220FCF7CDFB002114
:104B58003020FCF7C3FC40F204613120FCF7BEFCB6
:104B680040F205313220FCF7B9FC00213520FCF772
:104B7800B5FC40F609413620FCF7B0FC4FF4017152
:104B88003720FCF7ABFC40F201313820FCF7A6FCDB
:104B980040F207713920FCF7A1FC00213C20FCF70A
:104BA8009DFC40F60A213D20FCF798FC3220FCF7DA
:104BB8009BFB00215020FCF791FCEF215120FCF7D2
:104BC8008DFC00215220FCF789FC40F23F11532054
:104BD800FCF784FC4FF427416020FCF77FFC01219F
:104BE8006120FCF77BFC00216A20FCF777FC0021A0
:104BF8008020FCF773FC00218120FCF76FFC00216A
:104C08008220FCF76BFC00218320FCF767FC002165
:104C18008420FCF763FC00218520FCF75FFC102151
:104C28009020FCF75BFC4FF4C0619220FCF756FC27
:104C380040F233110720FCF751FCFDF783BE002139
:104C48000846FCF74BFC4FF480710120FCF746FC4A
:104C58004FF4E0610220FCF741FC41F230010320EF
:104C6800FCF73CFC00210420FCF738FC40F2022150
:104C78000820FCF733FC00210920FCF72FFC002159
:104C88000A20FCF72BFC01210C20FCF727FC002153
:104C98000D20FCF723FC00210F20FCF71FFC32201D
:104CA800FCF722FB40F201110720FCF717FC322029
:104CB800FCF71AFB4FF486511020FCF70FFC072174
:104CC8001120FCF70BFC4FF488711220FCF706FC4E
:104CD8004FF430611320FCF701FC00212920FCF778
:104CE800FDFB44F210012B20FCF7F8FB00215020BB
:104CF800FCF7F4FBEF215120FCF7F0FB00215220D8
:104D0800FCF7ECFB40F23F115320FCF7E7FB4FF4B4
:104D18001C516020FCF7E2FB01216120FCF7DEFB5F
:104D280000216A20FCF7DAFB00218020FCF7D6FB83
:104D380000218120FCF7D2FB00218220FCF7CEFB6A
:104D480000218320FCF7CAFB00218420FCF7C6FB66
:104D580000218520FCF7C2FB10219020FCF7BEFB48
:104D680000219220FCF7BAFB01219320FCF7B6FB47
:104D78004FF488719520FCF7B1FB00219720FCF7D0
:104D8800ADFB00219820FCF7A9FB40F27311072026
:104D9800FCF7A4FBFDF7D6BD41F21401E720FCF7B0
:104DA8009DFB4FF480710120FCF798FB4FF40071D4
:104DB8000220FCF793FB41F238010320FCF78EFB3D
:104DC80040F202210820FCF789FB00210920FCF7AA
:104DD80085FB00210A20FCF781FB00210C20FCF751
:104DE8007DFB00210D20FCF779FB00210F20FCF74B
:104DF80075FB00211020FCF771FB07211120FCF73F
:104E08006DFB00211220FCF769FB00211320FCF741
:104E180065FBC820FCF768FA41F290611020FCF7A6
:104E28005DFB40F227211120FCF758FB3220FCF7EC
:104E38005BFA0C211220FCF751FB3220FCF754FAE4
:104E48004FF400611320FCF749FB11212920FCF7DE
:104E580045FB0B212B20FCF741FB3220FCF744FAE1
:104E680000212020FCF73AFB40F23F112120FCF7FB
:104E780035FB00213020FCF731FB4FF483713120E2
:104E8800FCF72CFB00213220FCF728FB4FF40171C2
:104E98003520FCF723FB41F20A613620FCF71EFBA4
:104EA80040F207713720FCF719FB4FF48371382063
:104EB800FCF714FB40F207713920FCF70FFB40F2B6
:104EC80002413C20FCF70AFB40F60F413D20FCF76D
:104ED80005FB00215020FCF701FBEF215120FCF7D6
:104EE800FDFA00215220FCF7F9FA40F23F11532055
:104EF800FCF7F4FA4FF41C516020FCF7EFFA01219B
:104F08006120FCF7EBFA00216A20FCF7E7FA0021A0
:104F18008020FCF7E3FA00218120FCF7DFFA00216A
:104F28008220FCF7DBFA00218320FCF7D7FA002166
:104F38008420FCF7D3FA00218520FCF7CFFA102152
:104F48009020FCF7CBFA4FF4C0619220FCF7C6FA28
:104F580040F233110720FCF7C1FAFDF7F3BC4FF418
:104F680080710120FCF7BAFA4FF4E0610220FCF7E7
:104F7800B5FA41F230010320FCF7B0FA0021042011
:104F8800FCF7ACFA40F207210820FCF7A7FA002149
:104F98000920FCF7A3FA00210A20FCF79FFA002158
:104FA8000C20FCF79BFA00210D20FCF797FA002152
:104FB8000F20FCF793FA1420FCF796F941F2B06140
:104FC8001020FCF78BFA01211120FCF787FA012148
:104FD8001720FCF783FA4FF49C711220FCF77EFA35
:104FE8004FF400611320FCF779FA09212920FCF716
:104FF80075FA09212A20FCF771FA0021A420FCF790
:105008006DFA00215020FCF769FAEF215120FCF7D6
:1050180065FA00215220FCF761FA40F23F11532053
:10502800FCF75CFA4FF41C516020FCF757FA012199
:105038006120FCF753FA00216A20FCF74FFA00219F
:105048008020FCF74BFA00218120FCF747FA002169
:105058008220FCF743FA00218320FCF73FFA002165
:105068008420FCF73BFA00218520FCF737FA13214E
:105078009020FCF733FA00219220FCF72FFA032145
:105088009320FCF72BFA4FF488719520FCF726FA49
:1050980040F273110720FCF721FA3220FCF724F9BB
:1050A800FDF750BC00210720FCF718FA3220FCF766
:1050B8001BF94FF48E711220FCF710FA0121A4207D
:1050C800FCF70CFA0F210820FCF708FA08210A203F
:1050D800FCF704FA08210D20FCF700FA40F20771EA
:1050E8003020FCF7FBF907213120FCF7F7F940F2F3
:1050F80003613220FCF7F2F94FF4E0613320FCF74A
:10510800EDF940F202213420FCF7E8F902213520BC
:10511800FCF7E4F941F60F713620FCF7DFF940F2AD
:1051280007713720FCF7DAF900213820FCF7D6F9A7
:1051380000213920FCF7D2F940F207713A20FCF738
:10514800CDF900213B20FCF7C9F907213C20FCF7E9
:10515800C5F900213D20FCF7C1F93220FCF7C4F85D
:1051680001210720FCF7BAF901211720FCF7B6F94D
:105178003220FCF7B9F84FF4BD511020FCF7AEF916
:1051880040F217211120FCF7A9F94FF48F71122072
:10519800FCF7A4F94FF470611320FCF79FF9002184
:1051A8002A20FCF79BF90A212920FCF797F94FF4EC
:1051B8009F711220FCF792F900215020FCF78EF91C
:1051C800EF215120FCF78AF900215220FCF786F9DB
:1051D80040F23F115320FCF781F94FF41C51602035
:1051E800FCF77CF901216120FCF778F900216A209D
:1051F800FCF774F900218020FCF770F90021812068
:10520800FCF76CF900218220FCF768F90021832063
:10521800FCF764F900218420FCF760F9002185205F
:10522800FCF75CF913219020FCF758F94FF4407112
:105238009220FCF753F905219320FCF74FF9002140
:105248009520FCF74BF900219720FCF747F900213E
:105258009820FCF743F94FF480710120FCF73EF9E0
:105268004FF4E0610220FCF739F941F238010320DC
:10527800FCF734F900210420FCF730F900210C2058
:10528800FCF72CF900210F20FCF728F90021202039
:10529800FCF724F900212120FCF720F9212107201F
:1052A800FCF71CF91420FCF71FF861210720FCF714
:1052B80015F91420FCF718F840F273110720FCF7D1
:1052C8000DF91420FCF710F8FDF73CBB0021084647
:1052D800FCF704F900210846FCF700F9002108460C
:1052E800FCF7FCF800210846FCF7F8F80121A42097
:1052F800FCF7F4F81420FBF7F7FF4FF41C5160207B
:10530800FCF7ECF840F202210820FCF7E7F84FF42C
:1053180005713020FCF7E2F843F215713120FCF7F3
:10532800DDF840F204613220FCF7D8F840F6166147
:105338003320FCF7D3F842F211213420FCF7CEF8E1
:105348004FF4A8513520FCF7C9F848F20751362028
:10535800FCF7C4F841F207413720FCF7BFF841F2E7
:1053680003413820FCF7BAF820213920FCF7B6F8B9
:105378001A219020FCF7B2F800211020FCF7AEF8B3
:1053880007211120FCF7AAF800211220FCF7A6F843
:1053980000211320FCF7A2F81420FBF7A5FF4FF417
:1053A800E6611020FCF79AF840F237111120FCF75B
:1053B80095F81420FBF798FF4FF4DC711220FCF7E6
:1053C8008DF81420FBF790FF4FF470611320FCF761
:1053D80085F880212A20FCF781F848212920FCF74C
:1053E8007DF81420FBF780FF4FF480710120FCF753
:1053F80075F84FF4E0610220FCF770F841F23801CB
:105408000320FCF76BF840F202210820FCF766F84D
:1054180000210A20FCF762F800210C20FCF75EF856
:1054280000210D20FCF75AF830210E20FCF756F821
:1054380000215020FCF752F8EF215120FCF74EF8DC
:1054480000215220FCF74AF840F23F115320FCF7A4
:1054580045F84FF41C516020FCF740F80121612009
:10546800FCF73CF800216A20FCF738F8112190205D
:10547800FCF734F84FF4C0619220FCF72FF840F2A3
:1054880002419320FCF72AF802219420FCF726F821
:105498001420FBF729FF01210720FCF71FF814202F
:1054A800FBF722FF61210720FCF718F840F273117F
:1054B8000720FCF713F800212020FCF70FF8002143
:1054C8002120FCF70BF822210020FCF707F8FDF754
:1054D80039BA00210846FCF701F800210846FBF715
:1054E800FDFF1420FBF700FF00210846FBF7F6FF3D
:1054F80000210846FBF7F2FF00210846FBF7EEFF04
:1055080000210846FBF7EAFF0121A420FBF7E6FF8C
:105518001420FBF7E9FE4FF41C516020FBF7DEFF77
:1055280040F606010820FBF7D9FF40F2037130204E
:10553800FBF7D4FF01213120FBF7D0FF04213220F3
:10554800FBF7CCFF4FF481713320FBF7C7FF4FF413
:1055580040713420FBF7C2FF40F203113520FBF7FE
:10556800BDFF1F213620FBF7B9FF40F2037137203A
:10557800FBF7B4FF01213820FBF7B0FF04213920E5
:10558800FBF7ACFF15219020FBF7A8FF4FF48261D1
:105598001020FBF7A3FF40F247211120FBF79EFFE5
:1055A8004FF4DE711220FBF799FF4FF4606113206E
:1055B800FBF794FF7820FBF797FE4FF480710120EA
:1055C800FBF78CFF4FF400710220FBF787FF41F2D5
:1055D80030010320FBF782FF08210A20FBF77EFF3A
:1055E80000210C20FBF77AFF20210E20FBF776FF25
:1055F80000210F20FBF772FF00212020FBF76EFF30
:1056080000212120FBF76AFF3D212A20FBF766FFD6
:105618001420FBF769FE2D212920FBF75FFF0021ED
:105628005020FBF75BFF4DF2EF015120FBF756FFCF
:1056380000215220FBF752FF40F23F115320FBF7A5
:105648004DFF00216120FBF749FF00216A20FBF78D
:1056580045FF4FF440719220FBF740FF052193204E
:10566800FBF73CFF4FF480710720FBF737FFFDF78E
:1056780069B901210020FBF731FF4AF6A401032094
:10568800FBF72CFF00210C20FBF728FF40F60C014C
:105698000D20FBF723FF4FF42C510E20FBF71EFFC4
:1056A800B0211E20FBF71AFF42F63F310120FBF71D
:1056B80015FF4FF4C0610220FBF710FF00211020F6
:1056C800FBF70CFF46F278011120FBF707FF0021DA
:1056D8000520FBF703FF00210620FBF7FFFE4EF62F
:1056E8001C711620FBF7FAFE03211720FBF7F6FEC4
:1056F80040F233210720FBF7F1FE00210B20FBF7D6
:10570800EDFE00210F20FBF7E9FE00214120FBF709
:10571800E5FE00214220FBF7E1FE00214820FBF7CF
:10572800DDFE40F23F114920FBF7D8FE00214A2058
:10573800FBF7D4FE00214B20FBF7D0FE4FF46F415E
:105748004420FBF7CBFE00214520FBF7C7FE40F2C3
:105758003F114620FBF7C2FE40F207713020FBF7ED
:10576800BDFE4FF401713120FBF7B8FE4FF4017113
:105778003220FBF7B3FE40F202513320FBF7AEFEB6
:1057880040F207513420FBF7A9FE4FF40171352090
:10579800FBF7A4FE4FF401713620FBF79FFE40F2A1
:1057A80002513720FBF79AFE40F202313A20FBF70C
:1057B80095FE40F202313B20FBF790FE00212320AA
:1057C800FBF78CFE00212420FBF788FE4FF40041F4
:1057D8002520FBF783FE00214F20FBF77FFE0021E9
:1057E8004E20FBF77BFEFDF7ADB801210020FBF74B
:1057F80075FE0A20FBF778FD41F228611020FBF7BF
:105808006DFE0E211220FBF769FE40F639211320A8
:10581800FBF764FE0A20FBF767FD40211120FBF728
:105828005DFE50211520FBF759FE0A20FBF75CFDB1
:105838001E211220FBF752FE0A20FBF755FD4FF4FC
:10584800B1511020FBF74AFE42F639211320FBF72D
:1058580045FE0A20FBF748FD4FF480710120FBF755
:105868003DFE4FF440710220FBF738FE41F238014B
:105878000320FBF733FE40F202210820FBF72EFE3F
:1058880008210A20FBF72AFE00213020FBF726FE1C
:1058980040F202413120FBF721FE4FF483713220A0
:1058A800FBF71CFE40F203513320FBF717FE4FF4C1
:1058B80082713420FBF712FE40F201313520FBF7EC
:1058C8000DFE40F207713620FBF708FE40F2053165
:1058D8003720FBF703FE4FF402713820FBF7FEFD7B
:1058E80040F60B713920FBF7F9FD02214120FBF747
:1058F800F5FD4FF41C516020FBF7F0FD01216120FC
:10590800FBF7ECFD4FF404719020FBF7E7FD4FF433
:1059180085719220FBF7E2FD04219320FBF7DEFD61
:105928004FF48071A020FBF7D9FD01210720FBF778
:10593800D5FD21210720FBF7D1FD23210720FBF707
:10594800CDFD33210720FBF7C9FD40F233110720B5
:10595800FBF7C4FD0021A020FBF7C0FDFCF7F2BF58
:1059680030211520FBF7BAFD10219A20FBF7B6FD70
:1059780020211120FBF7B2FD43F228411020FBF74C
:10598800ADFD02211220FBF7A9FD41F238011320D9
:10599800FBF7A4FD2820FBF7A7FC12210846FBF71C
:1059A8009DFD2820FBF7A0FC43F220411020FBF7C7
:1059B80095FD43F238011320FBF790FD4620FBF7D5
:1059C80093FC00213020FBF789FD40F20241312091
:1059D800FBF784FD40F207313220FBF77FFD4FF4DF
:1059E80041713320FBF77AFD04213420FBF776FD63
:1059F80040F201413520FBF771FD40F20771362076
:105A0800FBF76CFD40F205313720FBF767FD4FF4DB
:105A1800C2613820FBF762FD4FF4C2613920FBF701
:105A28005DFD4FF480710120FBF758FD4FF4407184
:105A38000220FBF753FD41F230010320FBF74EFD36
:105A480040F608010820FBF749FD08210A20FBF76A
:105A580045FD4FF41C516020FBF740FD01216120FA
:105A6800FBF73CFD4FF49F719020FBF737FD4FF497
:105A780080719220FBF732FD4FF480719320FBF781
:105A88002DFD4FF44051A020FBF728FD1021A32045
:105A9800FBF724FD01210720FBF720FD212107202A
:105AA800FBF71CFD23210720FBF718FD33210720F6
:105AB800FBF714FD40F233110720FBF70FFDFCF74D
:105AC80041BF00BF2DE9F04383B080460F46994699
